:020000040000FA
:08000000803102288731F52F41
:1005D000640080010131890BE92A0034F3007008BE
:1005E0000319F32AF42AF92A7308031DF82AF92AB1
:1005F000FA2AFA2A0800F20072080319002B012BCC
:10060000072B70087104031D062B072B082B082BE2
:100610000800F300F201731C0E2B0F2B132B700834
:10062000F1007108F2070310F00D0310F30C7308CA
:10063000031D1B2B1C2B0B2B72080800F301F4016C
:10064000700871040319252B262B362B2B2B013018
:10065000F3070030F43D7008730784007108743D9F
:1006600085001200031D352B362B272B7408F10053
:100670007308F0000800F401F501701C402B412BB9
:10068000452B7208F4077308F53D0130F235F30D80
:10069000890B462B0130F136F00C890B4B2B70087F
:1006A0007104031D542B552B3D2B7508F100740864
:1006B000F0000800FD0020005908B2005808B10001
:1006C0000130B3000030B4005B08B6005A08B50032
:1006D0005B08B8005A08B7005B08BA005A08B900AE
:1006E0005B08BC005A08BB007D0886314126833177
:1006F0000800FD0020005908B2005808B10002307F
:10070000B3000030B4005B08B6005A08B5005D08BD
:10071000B8005C08B7005D08BA005C08B9005D0865
:10072000BC005C08BB007D0886314126833108008F
:10073000FD0020005908B2005808B1000330B30092
:100740000030B4005B08B6005A08B5005D08B80078
:100750005C08B7005F08BA005E08B9005F08BC001B
:100760005E08BB007D088631412683310800FD000C
:1007700020005908B2005808B1000430B30000301E
:10078000B4005B08B6005A08B5005D08B8005C0804
:10079000B7005F08BA005E08B9006108BC006008D5
:1007A000BB007D0886314126833108007008710442
:1007B0000319DB2BDC2BE12B7208031DE02BE12B53
:1007C000E22B212CF601F60AF701F8011C2C78081F
:1007D000803AF5007408803A7502031DF12B730806
:1007E0007702031CF42BF52BF72BF601182C770856
:1007F0007207F500750886000130870070087707DA
:1008000084007108783D8500000801060319092C51
:100810000A2C0C2CF601182C70087707840071083C
:10082000783D85001200031D162C172C182CF52B73
:100830000130F7070030F83D7608031D202C212CED
:10084000E72B0800F601F31F262C272C2E2CF2098B
:10085000F309F20A0319F30AF601F60AF11F312C23
:10086000322C372CF009F109F00A0319F10A70084B
:10087000710403193C2C3D2C662CF501F50A492C1A
:100880000130F035F10D890B412C0130F400740872
:10089000F507F11F4C2C4D2C402C71087302031DE1
:1008A000532C70087202031C562C572C5B2C7008BA
:1008B000F2027108F33B0130F136F00C890B5C2C2D
:1008C0000130F502031D652C662C4D2C76080319AA
:1008D0006A2C6B2C702CF209F309F20A0319F30A43
:1008E0007308F1007208F00008002000A101F71F52
:1008F0007A2C7B2C822CF609F709F60A0319F70AE1
:10090000A101A10AF91F852C862C8F2CF809F90961
:10091000F80A0319F90A0130FA007A08A106A201BF
:10092000A301760877040319962C972CC62CA001F6
:10093000A00AA32C0130F635F70D890B9B2C013052
:10094000FA007A08A007F71FA62CA72C9A2C0130D2
:10095000A235A30D890BA82C77087902031DB22CB0
:1009600076087802031CB52CB62CBB2C7608F8024E
:100970007708F93B22140130F736F60C890BBC2CB2
:100980000130A002031DC52CC62CA72C2108031979
:10099000CA2CCB2CD02CA209A309A20A0319A30AA2
:1009A0002308F7002208F60008002000AE002E08F9
:1009B000031DDB2CDC2CDE2CAA01512D2708B000F6
:1009C0002608AF002508AD002408AC00B01BE92CB8
:1009D000EB2C0130EC2C0030FB007B08AB002B082B
:1009E0000319F32CF42CF92CAF09B009AF0A031941
:1009F000B00AAA01AA0A0A30F0000030F100200073
:100A00003008F3002F08F200843122248431710869
:100A10002000A9007008A8003030A8070030A93DC8
:100A2000FF30AC07FF30AD3D2808FB002C082E0737
:100A3000FC007C088600013087007B0881000A30BA
:100A4000F6000030F7003008F9002F08F800843174
:100A50007524843177082000B0007608AF00300894
:100A6000803AFB0080307B02031D382D01302F02BD
:100A700003183B2D3C2DFB2C20002B080319412D86
:100A8000422D512DFF30AC07FF30AD3D2D30FB0026
:100A90002C082E07FC007C088600013087007B08AC
:100AA00081002A0808000030F0008830F10083310E
:100AB0001E23853171082000E4007008E300A03097
:100AC0008600003087004030E20000301E00E20B5C
:100AD000662D0830F6000030F7006408F100630866
:100AE000F0000730F2000030F30083313B23853102
:100AF0007108F9007008F800843175248531770891
:100B00002000E6007608E5002300A0011430200054
:100B1000D8008830D9000C30DA000030DB002230F9
:100B2000DC000030DD002D30DE000030DF0038302A
:100B3000E0000030E100A0308331B7238531183068
:100B40002000D8008830D9002A30DA000030DB00DD
:100B50003830DC000030DD004E30DE000030DF00D9
:100B6000A0308331982385311C302000D800883094
:100B7000D9000130DA000030DB000030DC00043046
:100B8000DD00A03083317923853130302000D8005A
:100B90008830D900B130DA006830DB00A030833112
:100BA0005A23853120302000D8008830D900793090
:100BB000DA002930DB00A03083315A238531283018
:100BC0002000D8008830D900C730DA00CF30DB00F1
:100BD000A03083315A23853124302000D80088305A
:100BE000D900FF30DA00FF30DB00A03083315A2318
:100BF00085312C302000D8008830D900CD30DA0083
:100C0000AB30DB00A03083315A23853133302000F4
:100C1000D8008830D9000130DA000030DB00A03085
:100C200083315A2385310030F0008830F100A03044
:100C30008231FB228531A0302000E2006208F00002
:100C40006608F2006508F10020308231EE2285311D
:100C500020006308FF3E203E8600013087008101AE
:100C60000030F0008830F1002030E2006208F2002D
:100C70006608F4006508F3008331D623853180319E
:100C800002282000D700D501D601D301D4013108B4
:100C9000320403194C2E4D2E522E5708031D512E8F
:100CA000522E542ECE01F32F3408CB003308CA0045
:100CB0003408D0003308CF003608C3003508C2001E
:100CC0003808C5003708C4003A08C7003908C6000C
:100CD0003C08C9003B08C800CE01CE0A31085507C0
:100CE00084003208563D85001200253A031D792EF6
:100CF0007A2EC12F5008803ABD0080303D02031D7E
:100D0000832E01304F02031C862E872EC12F013007
:100D10002000D5070030D63D310855078400320841
:100D2000563D85000008803A4F3E031C982E992EB0
:100D3000F72E3108550784003208563D850000081B
:100D4000803A463E0318A52EA62EF72E31085507E9
:100D500084003208563D85000008D03ED100FF30A7
:100D600003180030D2000130D5070030D63D3108DD
:100D7000550784003208563D85000008803A503EF1
:100D8000031CC32EC42E4D2F310855078400320892
:100D9000563D85000008803A463E0318D02ED12EDD
:100DA0004D2F0A30F0000030F1005208F3005108D6
:100DB000F20083313B23863171082000D200700895
:100DC000D1003108550784003208563D85000008DF
:100DD000D03EBD00FF3003180030BE003D08D107F3
:100DE0003E08D23D0130D5070030D63D4D2F0130B1
:100DF000D1000030D2004A08BD000130BD35890B5A
:100E0000FE2E42303D07BE00FE30BF003F08F0001E
:100E10004F0883310923863120003E07C000400877
:100E200086008701403FCC00413FCD002C2F0A3087
:100E3000F6000030F70020004D08F9004C08F800DB
:100E400084317524863177082000CD007608CC00E7
:100E50000130D1070030D23D4D08803ABD008030CE
:100E60003D02031D352F0A304C020318382F392F4D
:100E7000172F4D2F2030BD0053085707BE003E08E6
:100E80008600013087003D0881000130D307003023
:100E9000D43DFF30D107FF30D23D2000510852042D
:100EA000031D532F542F3A2F310855078400320861
:100EB000563D85001200643A031D5F2F602F902F6E
:100EC0000130D5070030D63D5408A5005308A400D2
:100ED0004A08BD000130BD35890B6B2F42303D07FC
:100EE000BE00FE30BF003F08F0004F0883310923E9
:100EF000863120003E07C000400886008701403F41
:100F0000A600413FA70057088431D5248631200030
:100F1000C1004108CE00FF30CF07FF30D03DDB2FAE
:100F20004530BD0057088600013087003D0881002C
:100F30007230BD00570A8600013087003D088100ED
:100F40007230BD005708023E8600013087003D0820
:100F500081006F30BD005708033E860001308700D6
:100F60003D0881007230BD005708043E8600013004
:100F700087003D0881000530D3000030D400CE0149
:100F8000DB2F20003108550784003208563D8500CC
:100F90000008BD0053085707BE003E088600013018
:100FA00087003D0881000130D3070030D43D013077
:100FB000D5070030D63D4E080319DF2FE02FEB2F69
:100FC0003108550784003208563D85001200031D84
:100FD000EA2FEB2F6E2E53085707BD003D08860001
:100FE0000130870081014E08080020308400023063
:100FF000850040308231E822873120008531532D31
:10100000543468346534203471347534693463344D
:101010006B342034623472346F3477346E3420345D
:1010200066346F34783400342534383464342034F2
:10103000253438346434203425343834643420344E
:101040002534383464340034253432346434003484
:101050002534363464340034253434347834003460
:0C1060002534643400342534703400342E
:00000001FF
